:0A0000000C943E000C9400000C94D8
:10000A0000000C9400000C9400000C9400000C9466
:10001A0000000C9400000C9400000C9400000C9456
:10002A0000000C9400000C9400000C9400000C9446
:10003A0000000C9400000C9400000C9400000C9436
:10004A0000000C9400000C940000467265713A207E
:10005A00256420487A0057616974696E672E2E2ECE
:10006A00000080C00B006001600002007F016C008C
:10007A000000F894EE27ECBBF1E0FBBFEBBFE5BF55
:10008A008DE0A2E0BB27ED938A95E9F780E094E042
:10009A00A0E6ED930197E9F7EEE6F0E085919591F8
:1000AA00009761F0A591B59105901590BF01F001F7
:1000BA0005900D920197E1F7FB01F0CFEFE5EDBF57
:1000CA00E4E0EEBFC0E6D1E00C946B00A4E1C5D039
:1000DA00EFEFEABBE0E0EBBBE0E0EFBDE0E0F0E031
:1000EA00FDBDECBDE0E2E8BFE1E4EEBDE8B7E5FF47
:1000FA00FDCF0E946F032F01E0E2E8BFE1E0EEBD11
:10010A00E8B7E5FFFDCF0E946F033F01E0E2E8BFD9
:10011A00E1E4EEBDE8B7E5FFFDCF0E946F034F01B2
:10012A00E0E2E8BFE0E0EEBD4814590460F5F401EE
:10013A00E419F5095F0166277727A0E0B2E18AE7AB
:10014A0090E00E94D303E0937B01F0937C016093DB
:10015A007D0170937E01EBE6F1E0FA93EA93E4E520
:10016A00F0E0FA93EA93E0917B01F0917C010E941E
:10017A00CE030E94060484E00E942203289639D006
:10018A00ABE6B1E002C0A0E6B1E056D0A4E6B0E02A
:10019A000E94B803A1CFFFCFAA93EBB3EF70AE2FA3
:1001AA00E881E07FEA2BEBBB8DE08A95F1F7DA9ADA
:1001BA008DE08A95F1F7DA988DE08A95F1F77AC0A1
:1001CA00AA93A881E9DFE881E295E883A881E4DFC0
:1001DA0085E88A95F1F76EC0AA93E881F0E0E158C4
:1001EA00FE4FE081A981AE0FEBDFD980C88022964D
:1001FA000895A2E00E947803ACE0E2DFA1E00E9449
:10020A007803E0E0CE2EDE2E0895AA93A881AA30C4
:10021A0021F0E0918301DE1648F0E0E0EA93C3940E
:10022A00AC2DDADFA881AA3009F444C0D394D89A55
:10023A00A881C6DFD8983EC0BA93AA931A93A98117
:10024A00BA81ED91A983BA831E2FE03019F0A12F4C
:10025A00DCDFF5CF188123960895AA93EAB3E06FFD
:10026A00EABBD29AD09AD19ADA98D898D998E881E2
:10027A00E0938301E058E0938101E881E054E09340
:10028A008201A4E1B0E00E94B8030E947E030E94AA
:10029A007E030E947E03A0E27FDF88EC90E0019754
:1002AA00F1F7A8E28DDFA4E08BDFA5E889DFA6E0FD
:1002BA0087DF9FDF21960895BA93AA931A930A9328
:1002CA00AA81BB8112960E94FC03309759F1AA8138
:1002DA00BB8114960E94FC038F01309761F00230B3
:1002EA00E0E01E0798F0F80131978F01AA81BB81DF
:1002FA001496ED93FC93AA81BB811296ED91FD9120
:10030A003196FE93EE933197AC81A083AA81BB818B
:10031A000E94FC03FF232AF0ED91FD913196FE9392
:10032A00EE9306C0AA81BB81EFEFFFEFED93FC933A
:10033A001981088125960895BA93AA932B970E944A
:10034A000F0410E0A989BA89E0E0F0E0ED93FC938C
:10035A00EF89F88D3196EF8BF88F3197E4912E2F34
:10036A00E03009F462C1E12FE03039F4253211F4AA
:10037A0011E002C00E94860357C1E130A9F4253278
:10038A0019F40E9486034FC112E040E000E02D32CA
:10039A0011F401E049C12B3211F44BE245C120327C
:1003AA0011F440E241C102C0E23039F450E013E0F6
:1003BA00203311F4006838C102C0E33091F42033CD
:1003CA0010F02A3308F007C0AAE05A9F502DE22FF6
:1003DA00E0535E0F29C12C3619F4026015E024C1DE
:1003EA0003C0E53009F020C1E22FE33649F40E9448
:1003FA008D03ED89FE89A481AA930E94930313C1F8
:10040A00E33741F40E948D030E9499030E94560328
:10041A001E2F0AC0E03769F40E948D030E949903D7
:10042A000E9462031E2F08600F77E0E0E88B30E03D
:10043A006EC0E43611F0E93611F4046002C0E53703
:10044A00A1F4EAE0E88B01FF08C0E0E0FAEC6AE90F
:10045A007BE30E94A3031AE022C0E0E1F7E260E036
:10046A0070E00E94A30315E01AC0E83511F4086091
:10047A0003C0E83709F0D7C0E0E1E88B01FF08C004
:10048A00E0E0F0E060E070E10E94A30318E007C03A
:10049A00E0E0F0E160E070E00E94A30314E001FFF5
:1004AA0008C00E948D03AD89BE8914960E9400047B
:1004BA0015C002FF0AC00E948D03AD89BE89149639
:1004CA000E94FC030E94CE0309C00E948D03AD89DD
:1004DA00BE8914960E94FC0366277727EC87FD875E
:1004EA006E877F8702FF13C0AF85AA235AF4EC8573
:1004FA00FD856E857F850E94C603EC87FD876E8722
:10050A007F874DE2403011F01F5F01C00B7F00FD75
:10051A0011C0151778F407FF08C002FF04C00B7F4B
:10052A00242F115001C020E301C020E20E9486035B
:10053A005150EFCF312FE889E030B9F43030A1F0D3
:10054A0003FF06C0EE81FF812591EE83FF8305C07C
:10055A00AE81BF812D91AE83BF830E948603503046
:10056A0009F051503150EACF54C00E94A8030E94AA
:10057A00D3032E2F2A3030F003FF02C0295C01C0BA
:10058A00295A01C0205D04FD22C0213360F4A885E8
:10059A00B9858A859B85A130E0E0BE07E0E08E0739
:1005AA00E0E09E0709F409C0531710F000FF01C0EC
:1005BA0013C020E207FF0BC020E3006102FF07C05F
:1005CA000B7F4A930E949303503009F051500E94C6
:1005DA008603503009F0515031500E94A8030E94FE
:1005EA00F803EC87FD876E877F87E889A885B98538
:1005FA008A859B85FF27662777270E94D3030E9457
:10060A00A303E885F9856A857B850E940B0409F0B6
:10061A00ACCF00FF08C0503031F05150E0E2EA930D
:10062A000E949303F8CF10E093CEA989BA890E9459
:10063A00FC030E94160469960895FF92F82E2697E5
:10064A000E9411040E94B103309719F4EFEFFFEFF3
:10065A0023C0DE0116960E94C2038D010E94B103D7
:10066A00EE83FF83E0E0E887E987DE011A960E94BD
:10067A00C2030E94FC03FA93EA931A930A93E1E6EF
:10068A00F1E0FA93EA93DE011A9656DE9F01AE81F3
:10069A00BF81E0E0EC93F9010E9418042A96FF90CA
:1006AA000895BA93AA93A991B991EE27FF276D915C
:1006BA00662311F03196FBCF0895BA93AA93AA271D
:1006CA00BB27E991F9910590002011F01196FBCF13
:1006DA00FD010895E7B5FE2FE0E0DF01E6B5F0E0A1
:1006EA00EA0FFB1F08950E94E500A3E0B0E00C9416
:1006FA00B803A0E30E94D10088EC90E00197F1F7DB
:10070A0008952A93AA89BB89EC89FD8909950895D8
:10071A00ED89FE893497ED8BFE8B0895AA89BB89F2
:10072A00EC89FD8909950895AD89BE8914960E94C0
:10073A00FC03EE83FF83AE81BF810895E887F987C2
:10074A006A877B870895E885F9856A857B85AC8504
:10075A00BD858E859F850895DE011C960E94C20381
:10076A000E94FC030895109639F080ED97E00197F6
:10077A00F1F7A8951197C9F708950024AF0DB01D98
:10078A000895F09560957095E195FF4F6F4F7F4FF3
:10079A0008956F2F660F660B762F08953F934F9338
:1007AA005F93002411244427552730E2AA0FBB1F68
:1007BA00881F991F001C111C441F551F0E1A1F0A5F
:1007CA00460B570B28F40E0E1F1E461F571F01C05B
:1007DA00A1603A9559F7FD01BC01D001CA015F91A8
:1007EA004F913F910895DADFFD01BC010895ED9123
:1007FA00FC9111970895ED91FD916D917C9113975C
:10080A0008957A936A93FA93EA9308953097604029
:10081A00704008955A934A933A932A931A930A93E3
:10082A0008955D814C813B812A811981088108954F
:00000001FF
