:0E0000000C9440000C9400000C9400000C9432
:10000E0000000C9400000C9400000C9400000C9462
:10001E0000000C9498000C946D000C9400000C944D
:10002E0000000C9400000C9400000C9400000C9442
:10003E0000000C9400000C9400000C9400000C9432
:10004E0000000C94000000000000000003000300FC
:10005E003F0006005B004F0066006D007D0007004C
:10006E007F006F000A0004005400130060015E0060
:10007E000000F894EE27ECBBF1E0FBBFEBBFE5BF51
:10008E008DE0A2E0BB27ED938A95E9F780E094E03E
:10009E00A0E6ED930197E9F7E2E7F0E085919591FF
:1000AE00009761F0A591B59105901590BF01F001F3
:1000BE0005900D920197E1F7FB01F0CFEFE5EDBF53
:1000CE00E4E0EEBFC0E6D1E00C94D9008FD0F4018D
:1000DE0031964F01E2E0F0E0E815F905F9F4F6018A
:1000EE008DD0A0E6B1E093D0EC91E2BB759467940D
:1000FE00062C072819F4E8E0F0E03F01EFEFE625C3
:10010E00E5BB88249924F60131976F01EFEFFFEFDD
:10011E00EC15FD0519F4E3E0F0E06F01EAEFE2BF44
:10012E0039C064D0F20131962F01E8ECF0E0E4150D
:10013E00F50561F5AAE7B1E0ED91FD913196FE93DB
:10014E00EE930024A014B004E4F0F50157D0EA3089
:10015E00A0E0FA0791F4F5013197A4E7B1E057D08A
:10016E00ED91FD913196FE93EE93F501A4E7B1E08A
:10017E004ED0E0E0F0E0ED93FC93F50131975F0196
:10018E00E0CFE3E0F0E05F0144245524EFEFEDBD56
:10019E00E0EFECBDE991EFBFF991E991B991A99129
:1001AE0009901895EFEFE1BBE0E0E2BBEFEFE4BBA7
:1001BE00EFEEE5BBE5E0E3BFEAEFE2BFE0E0ECBF68
:1001CE00EFBDE5E0EEBDEFEFEDBDE0EFECBDE0E045
:1001DE00E7BDE6BDEBBDEABDE9BDE8BDE5E0E9BFC3
:1001EE00E0E0E5BFE4BF7894FFCFFFCF0A92AA9379
:1001FE00BA93EA93FA93EFB7EA930895A4E7B1E0BE
:10020E00EE0FFF1FAE0FBF1F0E9413010895EE0FDA
:10021E00FF1FAE0FBF1F0895ED91FC91119708952A
:00000001FF
