:0E0000000C942F000C9400000C9400000C9443
:10000E0000000C9400000C9400000C9400000C9462
:10001E0000000C9400000C945C000C9400000C94F6
:10002E0000000C9400000C9400000C9400000C9442
:10003E0000000C9400000C9400000C9400000C9432
:10004E0000000C94000080C002006001540000000B
:10005E00F894EE27ECBBF1E0FBBFEBBFE5BF8DE004
:10006E00A2E0BB27ED938A95E9F780E094E0A0E645
:10007E00ED930197E9F7E6E5F0E08591959100970C
:10008E0061F0A591B59105901590BF01F001059015
:10009E000D920197E1F7FB01F0CFEFE5EDBFE4E044
:1000AE00EEBFC0E6D1E00C94A0000A921A92FA922A
:1000BE006A937A938A939A93AA93BA93EA93FA934A
:1000CE00EFB7EA93F20131962F01E8EEF3E0E41573
:1000DE00F505F9F4AA2D7CD0F50131965F01F301F7
:1000EE0031963F01E4E1F0E0E615F70529F46624C8
:1000FE007724E1E0F0E04F016A92A82D52D044241B
:10010E005524EBE5F0E0EA15FB0519F4E0E0E3BF5A
:10011E00E9BFE0E0E2BFE991EFBFF991E991B99152
:10012E00A9919991899179916991F9901990099074
:10013E001895E0E0EABBEBBB66247724882499246B
:10014E0044245524E1E4F0E05F01E1E0E3BFE0E0A8
:10015E00E2BFECBFE1E0E9BFA4E150D07894FFCF5D
:10016E00FFCFAA93EBB3EF70AE2FE881E07FEA2BBF
:10017E00EBBB8DE08A95F1F7DA9A8DE08A95F1F76F
:10018E00DA988DE08A95F1F763C0AA93A881E9DF2A
:10019E00E881E295E883A881E4DF85E88A95F1F7A6
:1001AE0057C0AA93E881F0E0E05AFE4FE081A981A2
:1001BE00AE0FEBDFD980C88022960895A2E04AD018
:1001CE00ACE0E3DFA1E046D0E0E0CE2EDE2E0895D7
:1001DE00AA93A881AA3021F0E0916401DE1640F0C6
:1001EE00E0E0EA93C394AC2DDCDFA881AA3081F164
:1001FE00D394D89AA881C9DFD8982AC0AA93EAB313
:10020E00E06FEABBD29AD09AD19ADA98D898D99858
:10021E00E881E0936401E058E0936201E881E054E4
:10022E00E0936301A4E1B0E00E943D0118D017D025
:10023E0016D0A0E296DF88EC90E00197F1F7A8E2E5
:10024E00A4DFA4E0A2DFA5E8A0DFA6E09EDFB6DF74
:10025E00219608959ADFA3E0B0E00C943D01A0E34F
:10026E0080DF88EC90E00197F1F70895109639F051
:10027E0080ED97E00197F1F7A8951197C9F70895CA
:00000001FF
